{
  "contractName": "Bounties",
  "abi": [
    {
      "inputs": [],
      "payable": false,
      "stateMutability": "nonpayable",
      "type": "constructor"
    },
    {
      "anonymous": false,
      "inputs": [
        {
          "indexed": true,
          "internalType": "uint256",
          "name": "bountyId",
          "type": "uint256"
        },
        {
          "indexed": true,
          "internalType": "address",
          "name": "sender",
          "type": "address"
        },
        {
          "indexed": false,
          "internalType": "uint256",
          "name": "amount",
          "type": "uint256"
        }
      ],
      "name": "BountyCancelled",
      "type": "event"
    },
    {
      "anonymous": false,
      "inputs": [
        {
          "indexed": false,
          "internalType": "uint256",
          "name": "bountyId",
          "type": "uint256"
        },
        {
          "indexed": false,
          "internalType": "address",
          "name": "fulfiler",
          "type": "address"
        },
        {
          "indexed": false,
          "internalType": "uint256",
          "name": "fulfilmentId",
          "type": "uint256"
        },
        {
          "indexed": false,
          "internalType": "string",
          "name": "data",
          "type": "string"
        }
      ],
      "name": "BountyFulfiled",
      "type": "event"
    },
    {
      "anonymous": false,
      "inputs": [
        {
          "indexed": false,
          "internalType": "uint256",
          "name": "bountyId",
          "type": "uint256"
        },
        {
          "indexed": false,
          "internalType": "address",
          "name": "issuer",
          "type": "address"
        },
        {
          "indexed": false,
          "internalType": "uint256",
          "name": "amount",
          "type": "uint256"
        },
        {
          "indexed": false,
          "internalType": "string",
          "name": "data",
          "type": "string"
        }
      ],
      "name": "BountyIssued",
      "type": "event"
    },
    {
      "anonymous": false,
      "inputs": [
        {
          "indexed": false,
          "internalType": "uint256",
          "name": "bountyId",
          "type": "uint256"
        },
        {
          "indexed": false,
          "internalType": "address",
          "name": "issuer",
          "type": "address"
        },
        {
          "indexed": false,
          "internalType": "address",
          "name": "fulfiler",
          "type": "address"
        },
        {
          "indexed": true,
          "internalType": "uint256",
          "name": "fulfilmentId",
          "type": "uint256"
        },
        {
          "indexed": false,
          "internalType": "uint256",
          "name": "amount",
          "type": "uint256"
        }
      ],
      "name": "FulfilmentAccepted",
      "type": "event"
    },
    {
      "constant": true,
      "inputs": [
        {
          "internalType": "uint256",
          "name": "",
          "type": "uint256"
        }
      ],
      "name": "bounties",
      "outputs": [
        {
          "internalType": "address payable",
          "name": "issuer",
          "type": "address"
        },
        {
          "internalType": "uint256",
          "name": "deadline",
          "type": "uint256"
        },
        {
          "internalType": "string",
          "name": "data",
          "type": "string"
        },
        {
          "internalType": "enum Bounties.BountyStatus",
          "name": "status",
          "type": "uint8"
        },
        {
          "internalType": "uint256",
          "name": "amount",
          "type": "uint256"
        }
      ],
      "payable": false,
      "stateMutability": "view",
      "type": "function"
    },
    {
      "constant": false,
      "inputs": [
        {
          "internalType": "string",
          "name": "_data",
          "type": "string"
        },
        {
          "internalType": "uint64",
          "name": "_deadline",
          "type": "uint64"
        }
      ],
      "name": "issueBounty",
      "outputs": [
        {
          "internalType": "uint256",
          "name": "",
          "type": "uint256"
        }
      ],
      "payable": true,
      "stateMutability": "payable",
      "type": "function"
    },
    {
      "constant": false,
      "inputs": [
        {
          "internalType": "uint256",
          "name": "_bountyId",
          "type": "uint256"
        },
        {
          "internalType": "string",
          "name": "_data",
          "type": "string"
        }
      ],
      "name": "fulfilBounty",
      "outputs": [],
      "payable": false,
      "stateMutability": "nonpayable",
      "type": "function"
    },
    {
      "constant": false,
      "inputs": [
        {
          "internalType": "uint256",
          "name": "_bountyId",
          "type": "uint256"
        },
        {
          "internalType": "uint256",
          "name": "_fulfilmentId",
          "type": "uint256"
        }
      ],
      "name": "acceptFulfilment",
      "outputs": [],
      "payable": false,
      "stateMutability": "nonpayable",
      "type": "function"
    },
    {
      "constant": false,
      "inputs": [
        {
          "internalType": "uint256",
          "name": "_bountyId",
          "type": "uint256"
        }
      ],
      "name": "cancelBounty",
      "outputs": [],
      "payable": false,
      "stateMutability": "nonpayable",
      "type": "function"
    }
  ],
  "bytecode": "0x608060405234801561001057600080fd5b5061127b806100206000396000f3fe60806040526004361061004a5760003560e01c80639d8c57341461004f578063a3603d2b14610121578063a372625314610166578063dc2f874414610249578063e5e5dff114610353575b600080fd5b34801561005b57600080fd5b5061011f6004803603604081101561007257600080fd5b81019080803590602001909291908035906020019064010000000081111561009957600080fd5b8201836020820111156100ab57600080fd5b803590602001918460018302840111640100000000831117156100cd57600080fd5b91908080601f016020809104026020016040519081016040528093929190818152602001838380828437600081840152601f19601f82011690508083019250505050505050919291929050505061038e565b005b34801561012d57600080fd5b506101646004803603604081101561014457600080fd5b810190808035906020019092919080359060200190929190505050610730565b005b6102336004803603604081101561017c57600080fd5b810190808035906020019064010000000081111561019957600080fd5b8201836020820111156101ab57600080fd5b803590602001918460018302840111640100000000831117156101cd57600080fd5b91908080601f016020809104026020016040519081016040528093929190818152602001838380828437600081840152601f19601f820116905080830192505050505050509192919290803567ffffffffffffffff169060200190929190505050610b2f565b6040518082815260200191505060405180910390f35b34801561025557600080fd5b506102826004803603602081101561026c57600080fd5b8101908080359060200190929190505050610d72565b604051808673ffffffffffffffffffffffffffffffffffffffff1673ffffffffffffffffffffffffffffffffffffffff168152602001858152602001806020018460028111156102ce57fe5b60ff168152602001838152602001828103825285818151815260200191508051906020019080838360005b838110156103145780820151818401526020810190506102f9565b50505050905090810190601f1680156103415780820380516001836020036101000a031916815260200191505b50965050505050505060405180910390f35b34801561035f57600080fd5b5061038c6004803603602081101561037657600080fd5b8101908080359060200190929190505050610e7a565b005b8160008054905081106103a057600080fd5b826103b26103ad336110c3565b611118565b6040518082815260200191505060405180910390a0610416610411600083815481106103da57fe5b906000526020600020906005020160000160009054906101000a900473ffffffffffffffffffffffffffffffffffffffff166110c3565b611118565b6040518082815260200191505060405180910390a06000818154811061043857fe5b906000526020600020906005020160000160009054906101000a900473ffffffffffffffffffffffffffffffffffffffff1673ffffffffffffffffffffffffffffffffffffffff163373ffffffffffffffffffffffffffffffffffffffff1614156104a257600080fd5b8360008160001b6040518082815260200191505060405180910390a0600082815481106104cb57fe5b906000526020600020906005020160030160009054906101000a900460ff1660028111156104f557fe5b81600281111561050157fe5b1461050b57600080fd5b856000818154811061051957fe5b906000526020600020906005020160010154421061053657600080fd5b6001600088815260200190815260200160002060405180606001604052806000151581526020013373ffffffffffffffffffffffffffffffffffffffff168152602001888152509080600181540180825580915050906001820390600052602060002090600202016000909192909190915060008201518160000160006101000a81548160ff02191690831515021790555060208201518160000160016101000a81548173ffffffffffffffffffffffffffffffffffffffff021916908373ffffffffffffffffffffffffffffffffffffffff160217905550604082015181600101908051906020019061062b9291906111a1565b505050507fe467edb885a289a5b3108ca26d435f3ba24f14d8eb6c0732297d79b195c63b0c873360018060008c8152602001908152602001600020805490500389604051808581526020018473ffffffffffffffffffffffffffffffffffffffff1673ffffffffffffffffffffffffffffffffffffffff16815260200183815260200180602001828103825283818151815260200191508051906020019080838360005b838110156106ea5780820151818401526020810190506106cf565b50505050905090810190601f1680156107175780820380516001836020036101000a031916815260200191505b509550505050505060405180910390a150505050505050565b81600080549050811061074257600080fd5b82826001600083815260200190815260200160002080549050811061076657600080fd5b846000818154811061077457fe5b906000526020600020906005020160000160009054906101000a900473ffffffffffffffffffffffffffffffffffffffff1673ffffffffffffffffffffffffffffffffffffffff163373ffffffffffffffffffffffffffffffffffffffff16146107dd57600080fd5b8560008160001b6040518082815260200191505060405180910390a06000828154811061080657fe5b906000526020600020906005020160030160009054906101000a900460ff16600281111561083057fe5b81600281111561083c57fe5b1461084657600080fd5b87876000151560016000848152602001908152602001600020828154811061086a57fe5b906000526020600020906002020160000160009054906101000a900460ff1615151461089557600080fd5b60018060008c81526020019081526020016000208a815481106108b457fe5b906000526020600020906002020160000160006101000a81548160ff021916908315150217905550600160008b815481106108eb57fe5b906000526020600020906005020160030160006101000a81548160ff0219169083600281111561091757fe5b0217905550600160008b8152602001908152602001600020898154811061093a57fe5b906000526020600020906002020160000160019054906101000a900473ffffffffffffffffffffffffffffffffffffffff1673ffffffffffffffffffffffffffffffffffffffff166108fc60008c8154811061099257fe5b9060005260206000209060050201600401549081150290604051600060405180830381858888f193505050501580156109cf573d6000803e3d6000fd5b50887fdf3a7564d87eb6d6112e0cf417a2c2c3f54782224c6f31e863f9069a7db7250a8b60008d81548110610a0057fe5b906000526020600020906005020160000160009054906101000a900473ffffffffffffffffffffffffffffffffffffffff16600160008f81526020019081526020016000208d81548110610a5057fe5b906000526020600020906002020160000160019054906101000a900473ffffffffffffffffffffffffffffffffffffffff1660008f81548110610a8f57fe5b906000526020600020906005020160040154604051808581526020018473ffffffffffffffffffffffffffffffffffffffff1673ffffffffffffffffffffffffffffffffffffffff1681526020018373ffffffffffffffffffffffffffffffffffffffff1673ffffffffffffffffffffffffffffffffffffffff16815260200182815260200194505050505060405180910390a250505050505050505050565b6000803411610b3d57600080fd5b8167ffffffffffffffff16428111610b5457600080fd5b60006040518060a001604052803373ffffffffffffffffffffffffffffffffffffffff1681526020018567ffffffffffffffff16815260200186815260200160006002811115610ba057fe5b8152602001348152509080600181540180825580915050906001820390600052602060002090600502016000909192909190915060008201518160000160006101000a81548173ffffffffffffffffffffffffffffffffffffffff021916908373ffffffffffffffffffffffffffffffffffffffff160217905550602082015181600101556040820151816002019080519060200190610c419291906111a1565b5060608201518160030160006101000a81548160ff02191690836002811115610c6657fe5b0217905550608082015181600401555050507fba1576d8891bfe57a45ac4b986d4a4aa912c62f44771d4eec8ab2ce06e3be5b7600160008054905003333487604051808581526020018473ffffffffffffffffffffffffffffffffffffffff1673ffffffffffffffffffffffffffffffffffffffff16815260200183815260200180602001828103825283818151815260200191508051906020019080838360005b83811015610d23578082015181840152602081019050610d08565b50505050905090810190601f168015610d505780820380516001836020036101000a031916815260200191505b509550505050505060405180910390a160016000805490500391505092915050565b60008181548110610d7f57fe5b90600052602060002090600502016000915090508060000160009054906101000a900473ffffffffffffffffffffffffffffffffffffffff1690806001015490806002018054600181600116156101000203166002900480601f016020809104026020016040519081016040528092919081815260200182805460018160011615610100020316600290048015610e575780601f10610e2c57610100808354040283529160200191610e57565b820191906000526020600020905b815481529060010190602001808311610e3a57829003601f168201915b5050505050908060030160009054906101000a900460ff16908060040154905085565b806000805490508110610e8c57600080fd5b8160008181548110610e9a57fe5b906000526020600020906005020160000160009054906101000a900473ffffffffffffffffffffffffffffffffffffffff1673ffffffffffffffffffffffffffffffffffffffff163373ffffffffffffffffffffffffffffffffffffffff1614610f0357600080fd5b8260008160001b6040518082815260200191505060405180910390a060008281548110610f2c57fe5b906000526020600020906005020160030160009054906101000a900460ff166002811115610f5657fe5b816002811115610f6257fe5b14610f6c57600080fd5b600260008681548110610f7b57fe5b906000526020600020906005020160030160006101000a81548160ff02191690836002811115610fa757fe5b021790555060008581548110610fb957fe5b906000526020600020906005020160000160009054906101000a900473ffffffffffffffffffffffffffffffffffffffff1673ffffffffffffffffffffffffffffffffffffffff166108fc6000878154811061101157fe5b9060005260206000209060050201600401549081150290604051600060405180830381858888f1935050505015801561104e573d6000803e3d6000fd5b503373ffffffffffffffffffffffffffffffffffffffff16857fb9670bf4f2273686f771c9ab65309436df5ed75afa63eefec8b67640d8bcf72c6000888154811061109557fe5b9060005260206000209060050201600401546040518082815260200191505060405180910390a35050505050565b606081604051602001808273ffffffffffffffffffffffffffffffffffffffff1673ffffffffffffffffffffffffffffffffffffffff1681526020019150506040516020818303038152906040529050919050565b600061112582600061112c565b9050919050565b60008060008090505b6020811015611196576008810260ff60f81b868387018151811061115557fe5b602001015160f81c60f81b167effffffffffffffffffffffffffffffffffffffffffffffffffffffffffffff1916901c821791508080600101915050611135565b508091505092915050565b828054600181600116156101000203166002900490600052602060002090601f016020900481019282601f106111e257805160ff1916838001178555611210565b82800160010185558215611210579182015b8281111561120f5782518255916020019190600101906111f4565b5b50905061121d9190611221565b5090565b61124391905b8082111561123f576000816000905550600101611227565b5090565b9056fea265627a7a723158209a822a29f41cdd78f421d14c8f7e11cc7d37f23009a3d3511b7e9b617ed4cac864736f6c63430005100032",
  "source": "pragma solidity ^0.5.16;\r\n\r\n/**\r\n * @title Bounties\r\n * @author Peter (based on tute)\r\n * @dev Smart contract that allows a user to issue a bounty in ETH for the fulfilment of a task.\r\n */\r\n\r\ncontract Bounties {\r\n\r\n    /*\r\n     * Enums\r\n     */\r\n    enum BountyStatus { CREATED, ACCEPTED, CANCELLED }\r\n\r\n    /*\r\n     * Storage\r\n     */\r\n    Bounty[] public bounties;\r\n\r\n    mapping(uint=>Fulfilment[]) fulfilments;\r\n\r\n    /*\r\n     * Structs\r\n     */\r\n    struct Bounty {\r\n        address payable issuer;\r\n        uint deadline;\r\n        string data;\r\n        BountyStatus status;\r\n        uint amount;\r\n    }\r\n\r\n    struct Fulfilment {\r\n        bool accepted;\r\n        address payable fulfiler;\r\n        string data;\r\n    }\r\n\r\n    /**\r\n     * @dev Constructor\r\n     */\r\n    constructor() public {}\r\n\r\n    /**\r\n     * @dev issueBounty(): instantiates a new bounty\r\n     * @param _data the requirement of the bounty\r\n     * @param _deadline the Unix timestamp after which fulfilments will no longer be accepted\r\n     */\r\n    function issueBounty(\r\n        string memory _data,\r\n        uint64 _deadline\r\n    )\r\n\r\n    public payable hasValue() validateDeadline(_deadline) returns (uint)\r\n    {\r\n        bounties.push(Bounty(msg.sender, _deadline, _data, BountyStatus.CREATED, msg.value));\r\n        emit BountyIssued(bounties.length - 1, msg.sender, msg.value, _data);\r\n        return (bounties.length - 1);\r\n    }\r\n\r\n    /**\r\n     * @dev fulfilBounty(): submit a fulfilment of a bounty\r\n     * @param _bountyId the bounty being fulfiled\r\n     * @param _data the IPFS hash containing evidence of fulfilment\r\n     */\r\n    function fulfilBounty(\r\n        uint _bountyId,\r\n        string memory _data\r\n    )\r\n\r\n    public bountyExists(_bountyId) notIssuer(_bountyId) hasStatus(_bountyId, BountyStatus.CREATED) isBeforeDeadline(_bountyId)\r\n    {\r\n        fulfilments[_bountyId].push(Fulfilment(false, msg.sender, _data));\r\n        emit BountyFulfiled(_bountyId, msg.sender, fulfilments[_bountyId].length - 1, _data);\r\n    }\r\n\r\n    /**\r\n     * @dev acceptFulfilment(): accepts a submitted fulfilment and pays the BountyFulfiled\r\n     * @param _bountyId the bounty's id\r\n     * @param _fulfilmentId the fulfilment's id\r\n     */\r\n    function acceptFulfilment(\r\n        uint _bountyId,\r\n        uint _fulfilmentId\r\n    )\r\n\r\n    public bountyExists(_bountyId) fulfilmentExists(_bountyId, _fulfilmentId) onlyIssuer(_bountyId) hasStatus(_bountyId, BountyStatus.CREATED) fulfilmentNotYetAccepted(_bountyId, _fulfilmentId)\r\n    {\r\n        fulfilments[_bountyId][_fulfilmentId].accepted = true;\r\n        bounties[_bountyId].status = BountyStatus.ACCEPTED;\r\n        fulfilments[_bountyId][_fulfilmentId].fulfiler.transfer(bounties[_bountyId].amount);\r\n        emit FulfilmentAccepted(_bountyId, bounties[_bountyId].issuer, fulfilments[_bountyId][_fulfilmentId].fulfiler, _fulfilmentId, bounties[_bountyId].amount);\r\n    }\r\n\r\n    /**\r\n     * @dev cancelBounty(): cancels a bounty and returns the funds to the issuer\r\n     * @param _bountyId the id of the bounty to cancel\r\n     */\r\n    function cancelBounty(\r\n        uint _bountyId\r\n    )\r\n\r\n    public bountyExists(_bountyId) onlyIssuer(_bountyId) hasStatus(_bountyId, BountyStatus.CREATED)\r\n    {\r\n        bounties[_bountyId].status = BountyStatus.CANCELLED;\r\n        bounties[_bountyId].issuer.transfer(bounties[_bountyId].amount);\r\n        emit BountyCancelled(_bountyId, msg.sender, bounties[_bountyId].amount);\r\n    }\r\n\r\n    /**\r\n     * @dev toBytes(): Converts an address to bytes for logging.\r\n     * @param a the address to Converts\r\n     * @return the address in bytes\r\n     */\r\n    function toBytes(address a) private pure returns (bytes memory) {\r\n        return abi.encode(a);\r\n    }\r\n\r\n    /**\r\n     * @dev bytesToBytes32(): Converts bytes to bytes32 for logging.\r\n     * @param b the bytes to convert\r\n     * @param offset Offset to start the conversion at. 0 if you require the whole number.\r\n     */\r\n    function bytesToBytes32(bytes memory b, uint offset) private pure returns (bytes32) {\r\n        bytes32 out;\r\n\r\n        for (uint i = 0; i < 32; i++) {\r\n            out |= bytes32(b[offset + i] & 0xFF) >> (i * 8);\r\n        }\r\n        return out;\r\n    }\r\n\r\n    /**\r\n     * @dev bytesToBytes32(): Converts bytes to bytes32 for logging.\r\n     * @param b the bytes to convert\r\n     */\r\n    function bytesToBytes32(bytes memory b) private pure returns (bytes32) {\r\n        return bytesToBytes32(b, 0);\r\n    }\r\n\r\n    /**\r\n     * Modifiers\r\n     */\r\n    modifier validateDeadline(uint _newDeadline) {\r\n        require(_newDeadline > now);\r\n        _;\r\n    }\r\n\r\n    modifier hasValue() {\r\n        require(msg.value > 0);\r\n        _;\r\n    }\r\n\r\n    modifier bountyExists(uint _bountyId) {\r\n        require(_bountyId < bounties.length);\r\n        _;\r\n    }\r\n\r\n    modifier notIssuer(uint _bountyId) {\r\n        log0(bytesToBytes32(toBytes(msg.sender)));\r\n        log0(bytesToBytes32(toBytes(bounties[_bountyId].issuer)));\r\n        require(msg.sender != bounties[_bountyId].issuer);\r\n        _;\r\n    }\r\n\r\n    modifier hasStatus(uint _bountyId, BountyStatus _requiredStatus) {\r\n        log0(bytes32(_bountyId));\r\n        require(_requiredStatus == bounties[_bountyId].status);\r\n        _;\r\n    }\r\n\r\n    modifier isBeforeDeadline(uint _bountyId) {\r\n        require(now < bounties[_bountyId].deadline);\r\n        _;\r\n    }\r\n\r\n    modifier fulfilmentExists(uint _bountyId, uint _fulfilmentId) {\r\n        require(_fulfilmentId < fulfilments[_bountyId].length);\r\n        _;\r\n    }\r\n\r\n    modifier onlyIssuer(uint _bountyId) {\r\n        require(msg.sender == bounties[_bountyId].issuer);\r\n        _;\r\n    }\r\n\r\n    modifier fulfilmentNotYetAccepted(uint _bountyId, uint _fulfilmentId) {\r\n        require(fulfilments[_bountyId][_fulfilmentId].accepted == false);\r\n        _;\r\n    }\r\n\r\n    /**\r\n     * Events\r\n     */\r\n    event BountyIssued(uint bountyId, address issuer, uint amount, string data);\r\n    event BountyFulfiled(uint bountyId, address fulfiler, uint fulfilmentId, string data);\r\n    event FulfilmentAccepted(uint bountyId, address issuer, address fulfiler, uint indexed fulfilmentId, uint amount);\r\n    event BountyCancelled(uint indexed bountyId, address indexed sender, uint amount);\r\n}\r\n",
  "sourcePath": "D:\\projects\\JB\\dapp-series-bounties-truffle-box\\contracts\\Bounties.sol",
  "compiler": {
    "name": "solc",
    "version": "0.5.16+commit.9c3226ce.Emscripten.clang"
  },
  "schemaVersion": "3.0.23",
  "updatedAt": "2020-02-21T15:22:28.501Z",
  "devdoc": {
    "author": "Peter (based on tute)",
    "details": "Smart contract that allows a user to issue a bounty in ETH for the fulfilment of a task.",
    "methods": {
      "acceptFulfilment(uint256,uint256)": {
        "details": "acceptFulfilment(): accepts a submitted fulfilment and pays the BountyFulfiled",
        "params": {
          "_bountyId": "the bounty's id",
          "_fulfilmentId": "the fulfilment's id"
        }
      },
      "cancelBounty(uint256)": {
        "details": "cancelBounty(): cancels a bounty and returns the funds to the issuer",
        "params": {
          "_bountyId": "the id of the bounty to cancel"
        }
      },
      "constructor": {
        "details": "Constructor"
      },
      "fulfilBounty(uint256,string)": {
        "details": "fulfilBounty(): submit a fulfilment of a bounty",
        "params": {
          "_bountyId": "the bounty being fulfiled",
          "_data": "the IPFS hash containing evidence of fulfilment"
        }
      },
      "issueBounty(string,uint64)": {
        "details": "issueBounty(): instantiates a new bounty",
        "params": {
          "_data": "the requirement of the bounty",
          "_deadline": "the Unix timestamp after which fulfilments will no longer be accepted"
        }
      }
    },
    "title": "Bounties"
  },
  "userdoc": {
    "methods": {}
  }
}